{
  "address": "0x20e0C0026C54cF9d29A8A7E5A0606E2417c45F12",
  "abi": [
    {
      "inputs": [],
      "stateMutability": "nonpayable",
      "type": "constructor"
    },
    {
      "inputs": [],
      "name": "NotEnoughBalance",
      "type": "error"
    },
    {
      "inputs": [
        {
          "internalType": "contract IERC20",
          "name": "token",
          "type": "address"
        }
      ],
      "name": "UnauthorizedToken",
      "type": "error"
    },
    {
      "inputs": [
        {
          "internalType": "address",
          "name": "caller",
          "type": "address"
        },
        {
          "internalType": "address",
          "name": "expected",
          "type": "address"
        }
      ],
      "name": "UnexpectedCaller",
      "type": "error"
    },
    {
      "inputs": [],
      "name": "ZeroAddress",
      "type": "error"
    },
    {
      "inputs": [],
      "name": "ZeroValue",
      "type": "error"
    },
    {
      "anonymous": false,
      "inputs": [
        {
          "indexed": false,
          "internalType": "address",
          "name": "user",
          "type": "address"
        },
        {
          "indexed": false,
          "internalType": "contract IERC20",
          "name": "token",
          "type": "address"
        },
        {
          "indexed": false,
          "internalType": "uint256",
          "name": "amount",
          "type": "uint256"
        }
      ],
      "name": "Deposited",
      "type": "event"
    },
    {
      "anonymous": false,
      "inputs": [
        {
          "indexed": false,
          "internalType": "contract IERC20",
          "name": "token",
          "type": "address"
        },
        {
          "indexed": false,
          "internalType": "bool",
          "name": "allow",
          "type": "bool"
        }
      ],
      "name": "TokenUpdated",
      "type": "event"
    },
    {
      "anonymous": false,
      "inputs": [
        {
          "indexed": false,
          "internalType": "address",
          "name": "user",
          "type": "address"
        },
        {
          "indexed": false,
          "internalType": "contract IERC20",
          "name": "token",
          "type": "address"
        },
        {
          "indexed": false,
          "internalType": "uint256",
          "name": "amount",
          "type": "uint256"
        }
      ],
      "name": "Withdrawn",
      "type": "event"
    },
    {
      "inputs": [
        {
          "internalType": "contract IERC20",
          "name": "_token",
          "type": "address"
        },
        {
          "internalType": "bool",
          "name": "_allow",
          "type": "bool"
        }
      ],
      "name": "authorizeToken",
      "outputs": [],
      "stateMutability": "nonpayable",
      "type": "function"
    },
    {
      "inputs": [
        {
          "internalType": "contract IERC20",
          "name": "_token",
          "type": "address"
        },
        {
          "internalType": "uint256",
          "name": "_amount",
          "type": "uint256"
        }
      ],
      "name": "deposit",
      "outputs": [],
      "stateMutability": "nonpayable",
      "type": "function"
    },
    {
      "inputs": [
        {
          "internalType": "contract IERC20",
          "name": "_token",
          "type": "address"
        },
        {
          "internalType": "address",
          "name": "_user",
          "type": "address"
        }
      ],
      "name": "getBalanceOf",
      "outputs": [
        {
          "internalType": "uint256",
          "name": "balance",
          "type": "uint256"
        }
      ],
      "stateMutability": "view",
      "type": "function"
    },
    {
      "inputs": [],
      "name": "getOwner",
      "outputs": [
        {
          "internalType": "address",
          "name": "owner",
          "type": "address"
        }
      ],
      "stateMutability": "view",
      "type": "function"
    },
    {
      "inputs": [
        {
          "internalType": "contract IERC20",
          "name": "_token",
          "type": "address"
        },
        {
          "internalType": "uint256",
          "name": "_amount",
          "type": "uint256"
        }
      ],
      "name": "withdraw",
      "outputs": [],
      "stateMutability": "nonpayable",
      "type": "function"
    }
  ],
  "transactionHash": "0x66b4672a9ce59d7c05bbee58c2c93815b9574915a23c2962215ec9c4603343e7",
  "args": [],
  "numDeployments": 1,
  "solcInputHash": "b9c721a807def47fffbb0756f4543be2",
  "bytecode": "0x60a060405234801561001057600080fd5b503373ffffffffffffffffffffffffffffffffffffffff1660808173ffffffffffffffffffffffffffffffffffffffff1660601b8152505060805160601c610cbd61006d6000396000818161041e01526105490152610cbd6000f3fe608060405234801561001057600080fd5b50600436106100575760003560e01c806347e7ef241461005c57806353290b44146100785780636561cc32146100a8578063893d20e8146100c4578063f3fef3a3146100e2575b600080fd5b61007660048036038101906100719190610927565b6100fe565b005b610092600480360381019061008d91906108a7565b610395565b60405161009f9190610ac2565b60405180910390f35b6100c260048036038101906100bd91906108e7565b61041b565b005b6100cc610545565b6040516100d991906109a3565b60405180910390f35b6100fc60048036038101906100f79190610927565b61056d565b005b81600073ffffffffffffffffffffffffffffffffffffffff168173ffffffffffffffffffffffffffffffffffffffff161415610166576040517fd92e233d00000000000000000000000000000000000000000000000000000000815260040160405180910390fd5b8160008114156101a2576040517f7c946ed700000000000000000000000000000000000000000000000000000000815260040160405180910390fd5b83600160008273ffffffffffffffffffffffffffffffffffffffff1673ffffffffffffffffffffffffffffffffffffffff16815260200190815260200160002060009054906101000a900460ff1661023157806040517fe3d87c620000000000000000000000000000000000000000000000000000000081526004016102289190610a7e565b60405180910390fd5b836000803373ffffffffffffffffffffffffffffffffffffffff1673ffffffffffffffffffffffffffffffffffffffff16815260200190815260200160002060008773ffffffffffffffffffffffffffffffffffffffff1673ffffffffffffffffffffffffffffffffffffffff16815260200190815260200160002060008282546102bc9190610add565b925050819055508473ffffffffffffffffffffffffffffffffffffffff166323b872dd3330876040518463ffffffff1660e01b8152600401610300939291906109e7565b602060405180830381600087803b15801561031a57600080fd5b505af115801561032e573d6000803e3d6000fd5b505050506040513d601f19601f82011682018060405250810190610352919061087a565b507f8752a472e571a816aea92eec8dae9baf628e840f4929fbcc2d155e6233ff68a733868660405161038693929190610a1e565b60405180910390a15050505050565b60008060008373ffffffffffffffffffffffffffffffffffffffff1673ffffffffffffffffffffffffffffffffffffffff16815260200190815260200160002060008473ffffffffffffffffffffffffffffffffffffffff1673ffffffffffffffffffffffffffffffffffffffff16815260200190815260200160002054905092915050565b337f00000000000000000000000000000000000000000000000000000000000000008073ffffffffffffffffffffffffffffffffffffffff168273ffffffffffffffffffffffffffffffffffffffff16146104af5781816040517fd8a510f20000000000000000000000000000000000000000000000000000000081526004016104a69291906109be565b60405180910390fd5b82600160008673ffffffffffffffffffffffffffffffffffffffff1673ffffffffffffffffffffffffffffffffffffffff16815260200190815260200160002060006101000a81548160ff0219169083151502179055507fdcb2804db02b95bdd568fd11a31c5577ffdf36538c0f670e92930d9c1e8518ab8484604051610537929190610a99565b60405180910390a150505050565b60007f0000000000000000000000000000000000000000000000000000000000000000905090565b81600160008273ffffffffffffffffffffffffffffffffffffffff1673ffffffffffffffffffffffffffffffffffffffff16815260200190815260200160002060009054906101000a900460ff166105fc57806040517fe3d87c620000000000000000000000000000000000000000000000000000000081526004016105f39190610a7e565b60405180910390fd5b816000803373ffffffffffffffffffffffffffffffffffffffff1673ffffffffffffffffffffffffffffffffffffffff16815260200190815260200160002060008573ffffffffffffffffffffffffffffffffffffffff1673ffffffffffffffffffffffffffffffffffffffff1681526020019081526020016000205410156106b1576040517fad3a8b9e00000000000000000000000000000000000000000000000000000000815260040160405180910390fd5b816000803373ffffffffffffffffffffffffffffffffffffffff1673ffffffffffffffffffffffffffffffffffffffff16815260200190815260200160002060008573ffffffffffffffffffffffffffffffffffffffff1673ffffffffffffffffffffffffffffffffffffffff168152602001908152602001600020600082825461073c9190610b33565b925050819055508273ffffffffffffffffffffffffffffffffffffffff1663a9059cbb33846040518363ffffffff1660e01b815260040161077e929190610a55565b602060405180830381600087803b15801561079857600080fd5b505af11580156107ac573d6000803e3d6000fd5b505050506040513d601f19601f820116820180604052508101906107d0919061087a565b507fd1c19fbcd4551a5edfb66d43d2e337c04837afda3482b42bdf569a8fccdae5fb33848460405161080493929190610a1e565b60405180910390a1505050565b60008135905061082081610c2b565b92915050565b60008135905061083581610c42565b92915050565b60008151905061084a81610c42565b92915050565b60008135905061085f81610c59565b92915050565b60008135905061087481610c70565b92915050565b6000602082840312156108905761088f610c26565b5b600061089e8482850161083b565b91505092915050565b600080604083850312156108be576108bd610c26565b5b60006108cc85828601610850565b92505060206108dd85828601610811565b9150509250929050565b600080604083850312156108fe576108fd610c26565b5b600061090c85828601610850565b925050602061091d85828601610826565b9150509250929050565b6000806040838503121561093e5761093d610c26565b5b600061094c85828601610850565b925050602061095d85828601610865565b9150509250929050565b61097081610b67565b82525050565b61097f81610b79565b82525050565b61098e81610bc1565b82525050565b61099d81610bb7565b82525050565b60006020820190506109b86000830184610967565b92915050565b60006040820190506109d36000830185610967565b6109e06020830184610967565b9392505050565b60006060820190506109fc6000830186610967565b610a096020830185610967565b610a166040830184610994565b949350505050565b6000606082019050610a336000830186610967565b610a406020830185610985565b610a4d6040830184610994565b949350505050565b6000604082019050610a6a6000830185610967565b610a776020830184610994565b9392505050565b6000602082019050610a936000830184610985565b92915050565b6000604082019050610aae6000830185610985565b610abb6020830184610976565b9392505050565b6000602082019050610ad76000830184610994565b92915050565b6000610ae882610bb7565b9150610af383610bb7565b9250827fffffffffffffffffffffffffffffffffffffffffffffffffffffffffffffffff03821115610b2857610b27610bf7565b5b828201905092915050565b6000610b3e82610bb7565b9150610b4983610bb7565b925082821015610b5c57610b5b610bf7565b5b828203905092915050565b6000610b7282610b97565b9050919050565b60008115159050919050565b6000610b9082610b67565b9050919050565b600073ffffffffffffffffffffffffffffffffffffffff82169050919050565b6000819050919050565b6000610bcc82610bd3565b9050919050565b6000610bde82610be5565b9050919050565b6000610bf082610b97565b9050919050565b7f4e487b7100000000000000000000000000000000000000000000000000000000600052601160045260246000fd5b600080fd5b610c3481610b67565b8114610c3f57600080fd5b50565b610c4b81610b79565b8114610c5657600080fd5b50565b610c6281610b85565b8114610c6d57600080fd5b50565b610c7981610bb7565b8114610c8457600080fd5b5056fea2646970667358221220a94a717ff0b915e1a0b4dd9089a6ab51aabfc9c2b69532d0f041470deb8560e564736f6c63430008070033",
  "devdoc": {
    "kind": "dev",
    "methods": {},
    "version": 1
  },
  "userdoc": {
    "errors": {
      "NotEnoughBalance()": [
        {
          "notice": "Emitted when the user's balance is lower than requested."
        }
      ],
      "UnauthorizedToken(address)": [
        {
          "notice": "Emitted when the submitted token is not allowed."
        }
      ],
      "UnexpectedCaller(address,address)": [
        {
          "notice": "Emitted when the caller is not the expected address"
        }
      ],
      "ZeroAddress()": [
        {
          "notice": "Emitted when the submitted address is the zero address"
        }
      ],
      "ZeroValue()": [
        {
          "notice": "Emitted when the submitted value is zero."
        }
      ]
    },
    "kind": "user",
    "methods": {},
    "version": 1
  },
  "storageLayout": {
    "storage": [
      {
        "astId": 732,
        "contract": "contracts/UselessBank.sol:UselessBank",
        "label": "s_balanceOf",
        "offset": 0,
        "slot": "0",
        "type": "t_mapping(t_address,t_mapping(t_contract(IERC20)666,t_uint256))"
      },
      {
        "astId": 738,
        "contract": "contracts/UselessBank.sol:UselessBank",
        "label": "s_allowedTokens",
        "offset": 0,
        "slot": "1",
        "type": "t_mapping(t_contract(IERC20)666,t_bool)"
      }
    ],
    "types": {
      "t_address": {
        "encoding": "inplace",
        "label": "address",
        "numberOfBytes": "20"
      },
      "t_bool": {
        "encoding": "inplace",
        "label": "bool",
        "numberOfBytes": "1"
      },
      "t_contract(IERC20)666": {
        "encoding": "inplace",
        "label": "contract IERC20",
        "numberOfBytes": "20"
      },
      "t_mapping(t_address,t_mapping(t_contract(IERC20)666,t_uint256))": {
        "encoding": "mapping",
        "key": "t_address",
        "label": "mapping(address => mapping(contract IERC20 => uint256))",
        "numberOfBytes": "32",
        "value": "t_mapping(t_contract(IERC20)666,t_uint256)"
      },
      "t_mapping(t_contract(IERC20)666,t_bool)": {
        "encoding": "mapping",
        "key": "t_contract(IERC20)666",
        "label": "mapping(contract IERC20 => bool)",
        "numberOfBytes": "32",
        "value": "t_bool"
      },
      "t_mapping(t_contract(IERC20)666,t_uint256)": {
        "encoding": "mapping",
        "key": "t_contract(IERC20)666",
        "label": "mapping(contract IERC20 => uint256)",
        "numberOfBytes": "32",
        "value": "t_uint256"
      },
      "t_uint256": {
        "encoding": "inplace",
        "label": "uint256",
        "numberOfBytes": "32"
      }
    }
  }
}